{
  "contractName": "Wrestling",
  "abi": [
    {
      "constant": false,
      "inputs": [],
      "name": "withdraw",
      "outputs": [],
      "payable": false,
      "stateMutability": "nonpayable",
      "type": "function"
    },
    {
      "constant": true,
      "inputs": [],
      "name": "theWinner",
      "outputs": [
        {
          "name": "",
          "type": "address"
        }
      ],
      "payable": false,
      "stateMutability": "view",
      "type": "function"
    },
    {
      "constant": true,
      "inputs": [],
      "name": "wrestler2",
      "outputs": [
        {
          "name": "",
          "type": "address"
        }
      ],
      "payable": false,
      "stateMutability": "view",
      "type": "function"
    },
    {
      "constant": true,
      "inputs": [],
      "name": "wrestler1Played",
      "outputs": [
        {
          "name": "",
          "type": "bool"
        }
      ],
      "payable": false,
      "stateMutability": "view",
      "type": "function"
    },
    {
      "constant": false,
      "inputs": [],
      "name": "RegisterOpponent",
      "outputs": [],
      "payable": false,
      "stateMutability": "nonpayable",
      "type": "function"
    },
    {
      "constant": false,
      "inputs": [],
      "name": "wrestler",
      "outputs": [],
      "payable": true,
      "stateMutability": "payable",
      "type": "function"
    },
    {
      "constant": true,
      "inputs": [],
      "name": "wrestler1",
      "outputs": [
        {
          "name": "",
          "type": "address"
        }
      ],
      "payable": false,
      "stateMutability": "view",
      "type": "function"
    },
    {
      "constant": true,
      "inputs": [],
      "name": "gameFinished",
      "outputs": [
        {
          "name": "",
          "type": "bool"
        }
      ],
      "payable": false,
      "stateMutability": "view",
      "type": "function"
    },
    {
      "constant": true,
      "inputs": [],
      "name": "wrestler2Played",
      "outputs": [
        {
          "name": "",
          "type": "bool"
        }
      ],
      "payable": false,
      "stateMutability": "view",
      "type": "function"
    },
    {
      "inputs": [],
      "payable": false,
      "stateMutability": "nonpayable",
      "type": "constructor"
    },
    {
      "anonymous": false,
      "inputs": [
        {
          "indexed": false,
          "name": "wrestler1",
          "type": "address"
        },
        {
          "indexed": false,
          "name": "wrestler2",
          "type": "address"
        }
      ],
      "name": "WrestlingStartsEvent",
      "type": "event"
    },
    {
      "anonymous": false,
      "inputs": [
        {
          "indexed": false,
          "name": "wrestler1Deposit",
          "type": "uint256"
        },
        {
          "indexed": false,
          "name": "wrestler2Deposit",
          "type": "uint256"
        }
      ],
      "name": "EndOfRoundEvent",
      "type": "event"
    },
    {
      "anonymous": false,
      "inputs": [
        {
          "indexed": false,
          "name": "winner",
          "type": "address"
        },
        {
          "indexed": false,
          "name": "gains",
          "type": "uint256"
        }
      ],
      "name": "EndOfWrestlingEvent",
      "type": "event"
    }
  ],
  "bytecode": "0x6060604052341561000f57600080fd5b336000806101000a81548173ffffffffffffffffffffffffffffffffffffffff021916908373ffffffffffffffffffffffffffffffffffffffff16021790555061092b8061005e6000396000f300606060405260043610610099576000357c0100000000000000000000000000000000000000000000000000000000900463ffffffff1680633ccfd60b1461009e5780639d24e482146100b35780639e07f92a146101085780639ede38581461015d578063b6a792e81461018a578063c23df4f81461019f578063e2f0a978146101a9578063f0f32497146101fe578063f973728e1461022b575b600080fd5b34156100a957600080fd5b6100b1610258565b005b34156100be57600080fd5b6100c661031e565b604051808273ffffffffffffffffffffffffffffffffffffffff1673ffffffffffffffffffffffffffffffffffffffff16815260200191505060405180910390f35b341561011357600080fd5b61011b610344565b604051808273ffffffffffffffffffffffffffffffffffffffff1673ffffffffffffffffffffffffffffffffffffffff16815260200191505060405180910390f35b341561016857600080fd5b61017061036a565b604051808215151515815260200191505060405180910390f35b341561019557600080fd5b61019d61037d565b005b6101a76104f7565b005b34156101b457600080fd5b6101bc610762565b604051808273ffffffffffffffffffffffffffffffffffffffff1673ffffffffffffffffffffffffffffffffffffffff16815260200191505060405180910390f35b341561020957600080fd5b610211610787565b604051808215151515815260200191505060405180910390f35b341561023657600080fd5b61023e61079a565b604051808215151515815260200191505060405180910390f35b6000600460009054906101000a900460ff1680156102c357503373ffffffffffffffffffffffffffffffffffffffff16600460019054906101000a900473ffffffffffffffffffffffffffffffffffffffff1673ffffffffffffffffffffffffffffffffffffffff16145b15156102ce57600080fd5b600554905060006005819055503373ffffffffffffffffffffffffffffffffffffffff166108fc829081150290604051600060405180830381858888f19350505050151561031b57600080fd5b50565b600460019054906101000a900473ffffffffffffffffffffffffffffffffffffffff1681565b600160009054906101000a900473ffffffffffffffffffffffffffffffffffffffff1681565b600160149054906101000a900460ff1681565b600073ffffffffffffffffffffffffffffffffffffffff16600160009054906101000a900473ffffffffffffffffffffffffffffffffffffffff1673ffffffffffffffffffffffffffffffffffffffff161415156103da57600080fd5b33600160006101000a81548173ffffffffffffffffffffffffffffffffffffffff021916908373ffffffffffffffffffffffffffffffffffffffff1602179055507fd4443f0433b17d5fcbda14745060c62f4fd645677efd560e394d49cc6b73b9e56000809054906101000a900473ffffffffffffffffffffffffffffffffffffffff16600160009054906101000a900473ffffffffffffffffffffffffffffffffffffffff16604051808373ffffffffffffffffffffffffffffffffffffffff1673ffffffffffffffffffffffffffffffffffffffff1681526020018273ffffffffffffffffffffffffffffffffffffffff1673ffffffffffffffffffffffffffffffffffffffff1681526020019250505060405180910390a1565b600460009054906101000a900460ff161580156105b857506000809054906101000a900473ffffffffffffffffffffffffffffffffffffffff1673ffffffffffffffffffffffffffffffffffffffff163373ffffffffffffffffffffffffffffffffffffffff1614806105b75750600160009054906101000a900473ffffffffffffffffffffffffffffffffffffffff1673ffffffffffffffffffffffffffffffffffffffff163373ffffffffffffffffffffffffffffffffffffffff16145b5b15156105c357600080fd5b6000809054906101000a900473ffffffffffffffffffffffffffffffffffffffff1673ffffffffffffffffffffffffffffffffffffffff163373ffffffffffffffffffffffffffffffffffffffff1614156106645760001515600160149054906101000a900460ff16151514151561063a57600080fd5b60018060146101000a81548160ff02191690831515021790555034600254016002819055506106ac565b60001515600160159054906101000a900460ff16151514151561068657600080fd5b60018060156101000a81548160ff02191690831515021790555034600354016003819055505b600160149054906101000a900460ff1680156106d45750600160159054906101000a900460ff165b15610760576002600354026002541115610717576107126000809054906101000a900473ffffffffffffffffffffffffffffffffffffffff166107ad565b61075f565b6002805402600354111561075557610750600160009054906101000a900473ffffffffffffffffffffffffffffffffffffffff166107ad565b61075e565b61075d610886565b5b5b5b565b6000809054906101000a900473ffffffffffffffffffffffffffffffffffffffff1681565b600460009054906101000a900460ff1681565b600160159054906101000a900460ff1681565b6001600460006101000a81548160ff02191690831515021790555080600460016101000a81548173ffffffffffffffffffffffffffffffffffffffff021916908373ffffffffffffffffffffffffffffffffffffffff160217905550600354600254016005819055507f132c17ee6430a7c27424b2711c0e3f020ae13d9d62cfb347ae343c2180654bcb81600554604051808373ffffffffffffffffffffffffffffffffffffffff1673ffffffffffffffffffffffffffffffffffffffff1681526020018281526020019250505060405180910390a150565b60018060146101000a81548160ff02191690831515021790555060018060156101000a81548160ff0219169083151502179055507f4a06b026e39d5ecf4150ef1983227e240bcd23677c8d89479f9521c4e7bed63e600254600354604051808381526020018281526020019250505060405180910390a15600a165627a7a72305820c9de1ef94c5dc0d423e9ec8c9025243c2d93b05b04b74fa14e8da968dd2b41600029",
  "source": "pragma solidity ^0.4.18;\n\ncontract Wrestling {\n\t\n\taddress public wrestler1;\n\taddress public wrestler2;\n\n\tbool public wrestler1Played;\n\tbool public wrestler2Played;\n\n\tuint private wrestler1Deposit;\n\tuint private wrestler2Deposit;\n\n\tbool public gameFinished;\n\n\taddress public theWinner;\n\tuint gains;\n\n\n\tevent WrestlingStartsEvent(address wrestler1, address wrestler2);\n\tevent EndOfRoundEvent(uint wrestler1Deposit, uint wrestler2Deposit);\n\tevent EndOfWrestlingEvent(address winner, uint gains);\n\n\n\tfunction Wrestling() public {\n\t\twrestler1 = msg.sender;\n\t}\n\n\tfunction RegisterOpponent() public {\n\t\trequire(wrestler2 == address(0));\n\t\twrestler2 = msg.sender;\n\t\tWrestlingStartsEvent(wrestler1, wrestler2);\n\t}\n\n\tfunction wrestler() public payable {\n\t\trequire(!gameFinished && (msg.sender == wrestler1 || msg.sender == wrestler2));\n\n\t\tif(msg.sender == wrestler1) {\n\t\t\trequire(wrestler1Played == false);\n\t\t\twrestler1Played = true;\n\t\t\twrestler1Deposit = wrestler1Deposit + msg.value;\n\t\t} else {\n\t\t\trequire(wrestler2Played == false);\n\t\t\twrestler2Played = true;\n\t\t\twrestler2Deposit = wrestler2Deposit + msg.value;\n\t\t}\n\n\t\tif(wrestler1Played && wrestler2Played) {\n\t\t\tif(wrestler1Deposit > wrestler2Deposit * 2){\n\t\t\t\tendOfGame(wrestler1);\n\t\t\t} else if (wrestler2Deposit > wrestler1Deposit * 2) {\n\t\t\t\tendOfGame(wrestler2);\n\t\t\t} else {\n\t\t\t\tendOfRound();\n\t\t\t}\n\t\t}\n\t}\n\n\n\tfunction endOfRound() internal {\n\t\twrestler1Played = true;\n\t\twrestler2Played = true;\n\t\tEndOfRoundEvent(wrestler1Deposit, wrestler2Deposit);\n\t}\n\n\tfunction endOfGame(address winner) internal {\n\t\tgameFinished = true;\n\t\ttheWinner = winner;\n\n\t\tgains = wrestler1Deposit + wrestler2Deposit;\n\t\tEndOfWrestlingEvent(winner, gains);\n\t}\n\n\tfunction withdraw() public {\n\t\trequire(gameFinished && (theWinner == msg.sender));\n\n\t\tuint amount = gains;\n\n\t\tgains = 0;\n\n\t\tmsg.sender.transfer(amount);\n\t}\n\n}\n\n\n\n\n\n\n\n\n\n\n\n\n\n\n\n\n\n\n\n\n",
  "sourcePath": "/Users/kielbarry/Desktop/SmartContracts/contracts/Wrestling.sol",
  "compiler": {
    "name": "solc",
    "version": "0.4.18+commit.9cf6e910.Emscripten.clang"
  },
  "schemaVersion": "1.0.1",
  "updatedAt": "2018-01-19T01:18:10.758Z"
}